S01E0000454550524F4D20666F722044617461204C6F676765722E73726563BD
S1130000A3C000007DC30000BCC00000BAC0000053
S1130010B8C00000B6C00000E4C30000B2C00000D5
S1130020B0C00000AEC00000ACC00000AAC0000018
S1130030A8C00000A6C00000A4C00000A2C0000028
S1130040A0C000009EC000002EC300009AC00000A3
S113005066C3000096C0000094C0000092C0000077
S113006090C000008EC00000C3C000008AC0000021
S113007088C0000086C0000084C0000082C0000068
S113008080C000007EC000007CC000001401660136
S11300906601660166016601660166011401660176
S11300A06601660166016601660166011601660164
S11300B06601660166016601660166016601660104
S11300C06601660166016601660166011601660144
S11300D066016601660166016601660166016601E4
S11300E066016601660166016601660162016601D8
S11300F06601660166016601660166013F016601EB
S113010066016601660166016601660166016601B3
S113011066016601660166016601660133016601D6
S11301206601660166016601660166015101013BD3
S113013001000000000000000000005465737420FA
S1130140414443204441430011241FBECFEFD0E477
S1130150DEBFCDBF11E0A0E0B1E0ECEBF8E000E0E1
S11301600BBF02C007900D92A230B107D9F721E06E
S1130170A2E0B1E001C01D92AA36B207E1F767D14F
S11301809BC33ECF579A5F98569A109207015E9888
S113019052985A9A0E98169AE89AE9E6F0E0808105
S11301A08260808380818E7F808339983A983B98DF
S11301B03C983D98419A429A439A449A459AE8E673
S11301C0F0E0808184608083EDE6F0E080818260ED
S11301D08083808184608083808188608083808143
S11301E0806180838081806280830F9A179808954C
S11301F01F920F920FB60F9211240BB60F922F93EA
S11302003F938F939F93AF93BF93EF93FF93E091AB
S1130210B9008E2F90E0FC013897E135F10508F024
S113022055C0EA5BFF4F38C310920201E09102010E
S113023080910801E81770F481E08E0F8093020129
S1130240F0E0E75FFE4F80818093BB0085E88093F8
S1130250BC0043C08091030181608093030184E961
S11302608093BC003AC0E091020181E08E0F80933C
S113027002018091BB00F0E0E75FFE4F8083209194
S1130280020130E08091080190E0019728173907B6
S113029024F485EC8093BC0020C085E88093BC00E6
S11302A01CC08091BB00E0910201F0E0E75FFE4FCB
S11302B080838091030181608093030184E98093AA
S11302C0BC000BC085EA8093BC0007C08091B900D4
S11302D08093000184E08093BC00FF91EF91BF9173
S11302E0AF919F918F913F912F910F900BBE0F90E3
S11302F00FBE0F901F901895109A00C01098089583
S1130300CF93DF93D82F662311F0119A01C011986F
S1130310129884B18F6084B9C5B1C07F8D2F829546
S11303208F708C2B85B9E8DFDF70DC2BD5B9E4DF67
S1130330CF60C5B9DF91CF910895882311F0119A48
S113034001C01198129A84B1807F84B9109A00C0B8
S113035093B1109800C0109A00C023B12F70892F58
S11303608295807F1098822B089580E0E6DF8823B1
S1130370E4F384E090E00197F1F780E0DECF0895A4
S1130380CF93C82FF2DF60E08C2FBADFCF910895AE
S1130390611103C08058F4CF08958054F1CF0895BB
S11303A081E0EECF0895CF93C82FDFDFCA3041F448
S11303B0803410F080E001C080E48058E1DF03C0A5
S11303C061E08C2F9DDFCF910895CF93DF93EC01F3
S11303D02196FC018081882321F0E5DF8991811138
S11303E0FCCFDF91CF9108951F93CF93DF93182F04
S11303F084B18F6084B9099A0A9A089A80E09DE7CB
S11304000197F1F7299A289A77DF80E097E201971C
S1130410F1F772DFC0E8D0E0CE010197F1F76CDFAD
S1130420CE010197F1F7289867DF2197F1F788E269
S1130430A7DF88E0A5DFB4DF86E0A2DF812FA0DF9D
S1130440DF91CF911F91089580E889B908959ADECC
S11304500FD064EF71E084E292E01AD0809304013B
S11304608CE0C2DF9DDFEBD16AD080E090E008959C
S1130470E3E1F1E087E291E011921192E817F907C4
S1130480D9F710922801109227011092580108956B
S11304902091150130911601232B71F0E7E1F1E071
S11304A021E030E02F5F3F4F41915191452BD1F72F
S11304B02B30310518F016C021E030E0A901440FBB
S11304C0551FFA01ED5EFE4F91838083FA01E05DD2
S11304D0FE4F71836083FA01EC5BFE4F1182108240
S11304E0822F08958FEF0895E8E3F1E0E491EE237D
S11304F029F120E030E090E08E1313C0F901EE0FF3
S1130500FF1FE20FF31FE75CFE4FE491E61309C0FF
S1130510F901EE0FFF1FE20FF31FE65CFE4F84911B
S113052008959F5F292F30E0F901EE0FFF1FE20FBE
S1130530F31FE85CFE4FE491E111DECF089580D112
S113054099D181E080932A017894C12CD12C0F2E6B
S1130550FBE38F2EF1E09F2EF02D772473940F2E62
S1130560FEE2AF2EF1E0BF2EF02D512C612C06C01F
S1130570782E852C962C02C0852C962C0F2EF3E118
S1130580EF2EF1E0FF2EF02D00E311E0C0E0D0E00B
S1130590CE01D701ED91FD917D013097B1F0DE01DF
S11305A0AA0FBB1FAC5BBE4F4D915C91D8012D913E
S11305B03C914217530748F0880F991FDC01AC5B4C
S11305C0BE4F11961C921E92099521960E5F1F4FE5
S11305D0CA30D105E9F680915801882359F0109268
S11305E05801E0912701F0912801309719F08BE22E
S11305F091E009958114910459F0F894D1DE60E0FA
S113060080E0C6DEB40189E591E04FD1DEDE789466
S11306108091290110922901C114D10421F0F6011D
S11306200995782E07C0882329F0682F80912A0124
S11306305BDF782E80912A01781609F499CF7092A5
S11306402A01F5018491882309F496CF781629F0BC
S113065020E017C07E1215C002C0852D962DFC0126
S1130660EE0FFF1FEE0FFF1F8E0F9F1FFC01E15DBA
S1130670FE4F859094908F5C9E4FFC01C590D49062
S11306807DCF2F5F822F90E0FC01EE0FFF1FEE0F56
S1130690FF1FE80FF91FE25DFE4FE491E111DACF8D
S11306A0852C962C6BCF1F920F920FB60F921124AC
S11306B00BB60F922F933F938F939F93EF93FF93D8
S11306C083E886BD80E090E0FC01EE0FFF1FEC5B49
S11306D0FE4F208131812F5F3F4F3183208301966C
S11306E08A30910589F7FF91EF919F918F913F9106
S11306F02F910F900BBE0F900FBE0F901F90189567
S11307001F920F920FB60F9211248F9381E0809362
S113071006018F910F900FBE0F901F9018951F9296
S11307200F920FB60F9211240BB60F922F933F9393
S11307304F935F936F937F938F939F93AF93BF93E5
S1130740EF93FF93E0910501F0E08091C600E55D31
S1130750FE4F8083E0910501F0E0E55DFE4F80816E
S11307608034E1F4E0910501F0E0E55DFE4F808125
S113077079D0E0910501EF5FE0930501F0E0E55DDC
S1130780FE4F108281E080935801109205018DE0A4
S113079069D08AE067D08EE365D010C0E09105018E
S11307A0F0E0E55DFE4F80815DD0809105018F5FB3
S11307B080930501843010F010920501FF91EF91B0
S11307C0BF91AF919F918F917F916F915F914F9165
S11307D03F912F910F900BBE0F900FBE0F901F9063
S11307E018951F920F920FB60F9211248F9386B112
S11307F0809581FF04C081E0809329011AC082FFA3
S113080004C085E08093290114C083FF04C084E000
S1130810809329010EC084FF04C082E080932901E3
S113082008C085FF04C083E08093290102C01092B0
S113083029018F910F900FBE0F901F901895089566
S113084014BC85B58B7F85BD85B5826085BD85B5B6
S1130850816085BD83E886BDEEE6F0E0808181603D
S113086080830895E0ECF0E0908195FFFDCF8093C4
S1130870C6000895E0ECF0E080818260808388E027
S113088090E09093C5008093C40088E98093C100F0
S113089086E08093C2000895EE0FFF1F0024001C21
S11308A00BBE0790F691E02D0994FB01DC01059045
S10F08B00D920020E1F70895F894FFCFAA
S10508BCF8003E
S9030000FC
